:10040000FFFFFFFFFFFFFFFFFFFFFFFF7EFBFFFF81
:1004100010B5064C2378002B07D1054B002B02D0DA
:10042000044800E000BF0123237010BD6CFCFF1FD7
:1004300000000000FC19000008B5084B002B03D099
:100440000748084900E000BF07480368002B03D0B5
:10045000064B002B00D0984708BDC04600000000A6
:10046000FC19000070FCFF1F6CFCFF1F0000000067
:10047000164B002B00D1144B9D46402292029A1A33
:10048000924600218B460F461348144A121A01F077
:1004900086FA0F4B002B00D098470E4B002B00D054
:1004A00098470020002104000D000D48002802D0CC
:1004B0000C4800E000BF01F043FA2000290000F0E2
:1004C0007BFC01F027FAC04600000800000C002069
:1004D00000000000000000006CFCFF1FE80300208B
:1004E0000000000000000000002941D010B4041CEE
:1004F0004C40A44601230022002900D5494200288F
:1005000000D5404288422CD301242407A14204D2C2
:10051000814202D209011B01F8E7E400A14204D2A2
:10052000814202D249005B00F8E7884201D3401AB9
:100530001A434C08A04202D3001B5C0822438C08DB
:10054000A04202D3001B9C082243CC08A04202D345
:10055000001BDC082243002803D01B0901D0090935
:10056000E3E7101C6446002C00D5404210BC7047E5
:10057000002806D003DB0020C043400801E08020B3
:10058000000607B4024802A14018029003BDC0460D
:10059000190000000029EBD003B5FFF7A7FF0EBC40
:1005A0004243891A1847C0467047C04680B500AF1D
:1005B00072B6024A024B0349D150FEE700E000E068
:1005C0000C0D00000400FA050A4B70B5151C0A4A10
:1005D0000E1CC118041C002091420AD8201C00F0F7
:1005E00059FF301C211C2A1C00F080FF002800D07D
:1005F0001B2070BD00DCFFFFFF5B000010B59024E6
:10060000A401201C00F046FF002807D18023DB0056
:10061000E41880231B029C42F3D100E01B2010BD94
:10062000024B18690005C00F7047C04640F00F40EC
:1006300037B50023084C0193019DFFF7F1FF013C02
:1006400045190195002CF7D1019BFA2040009842F2
:10065000804140423EBDC046102700000E4A0F4B6D
:10066000C021D058C900014310B5D1500C4B0D4AE0
:1006700059690A405A610C4B0422FF32DA620B4B73
:100680001C68FFF7D5FF631E033303D8012801D18F
:1006900072B6A04710BDC04600700440381000007C
:1006A00040F00F40FFF7FFFF00A0044004240000CB
:1006B000704708B5002000F0A1FC08BD13B56C46DA
:1006C0000634201C00F0B0FC094A20881368094950
:1006D0009C006050084901330B4004D54021013B88
:1006E00049420B430133136000F022F813BDC046AA
:1006F000C4FCFF1FDC0200203F00008070477047F1
:1007000010B5C0438A1891420ED00B785840082388
:10071000012404404008002C01D0044C6040013BFF
:10072000002BF5D10131EEE7C04310BD783BF682D6
:10073000114B70B51968072461430918C910196075
:100740000E4A0F4B15681E68654374436D18611897
:10075000ED10C91015601960A84200DA10608842D7
:1007600000DD186019681368C9184910411A054856
:1007700000F0D8F970BDC04608FCFF1F00FCFF1F49
:1007800004FCFF1F34FDFF1F08B5024800F0B8F954
:1007900008BDC04634FDFF1F411808788B7800065D
:1007A0001B02C018CB78C0184B781B04C0187047C8
:1007B000F7B5994E171C336800223C333360974BD2
:1007C0000C1C9A56002A00DD24E18B2901DD00F083
:1007D000A1F99249924D01230B70E3182F552C1C5F
:1007E0000C2B00D1A4E0882B03D0082B00D00EE105
:1007F00047E00023EB56422B00D008E10123EB56E3
:100800004C2B00D003E10223EB564F2B00D0FEE02F
:1008100003256557072D30D80421201CFFF7BCFFA6
:10082000211C071C083100208022FFF769FF874246
:100830001DD1E8010023E1187A4A097A8218D154BF
:100840000133802BF7D1784B01225A55774AFF208C
:100850001368013313605843754B1968C900FFF7DB
:1008600043FEC0B200F00EFA724B336005E06E4BEF
:1008700002225A556F4A704B1A60704800F04AF9CC
:10088000C5E00023EB564B2B10D10123EB56492B2F
:100890000CD10223EB564C2B08D10323EB564C2BE7
:1008A00004D1FFF7ABFE654800F034F90023E356AE
:1008B000422B0DD10123E3564F2B09D10223E356DE
:1008C0004F2B05D10323E356542B01D1FFF76EFEC6
:1008D0000023E356442B00D099E00123E3564F2B2D
:1008E00000D094E00223E356492B00D08FE003238D
:1008F000E356542B00D08AE0514B00221A604A493B
:10090000002353540132082AF9D14E4A00259D5440
:100910000133172BF9D1201C0421FFF73DFF444B75
:100920001860494B1D60414B1D6000F0B1F96EE04D
:100930000023EB56462B6AD10123EB564C2B66D194
:100940000223EB56412B62D10323EB56532B5ED18E
:100950000421281CFFF720FF0821071C281CFFF793
:100960001BFF304C80220190D2000020211CFFF799
:10097000C7FE00231A1C2C495C5C0133611E4C42EB
:1009800061415218082BF6D12E4DBC0A082A25D1F8
:10099000019A904222D190239B018022F81821498C
:1009A000D200FFF711FE1B2808D100F081F9244B7B
:1009B0001A6801321A6002232B550DE0224A13688F
:1009C000013313601A4A12689A4201D1FFF7EEFD13
:1009D00001232B551D4B3360002208E0184B1A6889
:1009E00001321A6002232B5500F062F9F4E70E4938
:1009F00000238B540132082AF9D10A49CA18002170
:100A0000117001338022D2009342F6D135E7034AB8
:100A100000231370F7BDC046A8FCFF1FB8FCFF1FE2
:100A200050FDFF1FDCFDFF1F88FCFF1FBCFCFF1FEC
:100A3000B4FCFF1F204E0000ACFCFF1F34FDFF1F65
:100A4000C0FCFF1F90FCFF1FB0FCFF1F50C3000045
:100A500008B550235B4220301843C0B201F062F861
:100A600008BD10B5041C2034E4B22309102018433B
:100A700001F058F80F20204001F054F810BD70B577
:100A8000061C0024201CFFF7E3FF0020FFF7E9FF0E
:100A900001F01CF8782000F0EBFF402000F0E8FFA8
:100AA0000025705D013500F0E3FF402DF9D10134E0
:100AB000E4B201F021F84036042CE3D170BD0023EC
:100AC000C1548022013352009342F9D17047000093
:100AD000D3175B0F9B18DB109B01C918074B4018FD
:100AE0001A4004D50823013A5B421A43013201231C
:100AF00093401A1C037893430370704707000080EB
:100B000000230360436007220361C3600223826005
:100B1000436170470723836000230361022343611D
:100B2000704700004268C823013270B55B00041CA6
:100B30000E1C42609A4201DD022343612368002BB0
:100B400073DC002E71DD012A6DDD01231F2A00DC1C
:100B500000236269022A04D0032A13D0012A62D139
:100B60003BE0E2685100FF220A40002B00D0013236
:100B7000E260E368022B56D10322A3610023626185
:100B8000A36050E0E2685100FF220A40002B00D031
:100B90000132E260A268264B0132134004D50822DC
:100BA000013B524213430133A360002B3BD1A269A6
:100BB000E368022A02D1991E01290CD9002B08DD15
:100BC000591C8A4205D1012B05D1002263612261A3
:100BD00001E002226261A36125E0E2685100FF2288
:100BE0000A40002B00D00132A568114B0135E260AC
:100BF0001D4004D50823013D5B421D430135A5601E
:100C0000002D10D1227B201C2169FFF7D1FD236923
:100C1000013323618B2B01DCA56004E00723A36073
:100C200002232561636100236360266070BDC046B6
:100C300007000080094982B00A786B460132D2B2BF
:100C4000EFF3108072B6D8710A700733012A02D10F
:100C50001A78034B1A7002B07047C046DCFCFF1FC5
:100C6000E4030020054A1378013BDBB21370002B2C
:100C700003D1034B187880F310887047DCFCFF1F0A
:100C8000E4030020014B18707047C046CAFCFF1FE8
:100C9000044A00231370044A1370044B01221A7093
:100CA0007047C046CAFCFF1FC9FCFF1FC8FCFF1FDE
:100CB000024B1A7801321A707047C046C9FCFF1FF8
:100CC000F0B53B4C85B0201C0021FFF7F8FE0B234C
:100CD0000093112301931B23029307230393201CEA
:100CE000344935220F2300F085FF7825201C013D73
:100CF00000F04CFF002DF9D12825201C0021FFF722
:100D0000DEFE2C4F252308260022009304230293A5
:100D10000395131C201C391C019600F06BFF302337
:100D200000930A2302932B1C0933391C00220393DE
:100D3000201C331C019600F05DFF201C00F026FFF4
:100D4000013D201C00F022FFB542D6D17825201CA1
:100D5000013D00F01BFF002DF9D10425201C0021CE
:100D6000FFF7ADFE134F08260022252300930295BE
:100D7000131C201C391C0196039600F03BFF302306
:100D800000930E235B1B02931123391C0022039353
:100D9000201C331C019600F02DFF201C00F0F6FEF5
:100DA0000135201C00F0F2FE402DD7D105B0F0BD7A
:100DB000DC010020581C0000F0B585B0FFF74EFCA8
:100DC00000F0D0FA012000F03FF900F0BBFE494CE2
:100DD0000021201CFFF773FE201C00F0D7FEFFF758
:100DE0006FFFFFF7D1FC201C0021FFF768FE1723DF
:100DF00000930723404E019315230293022303938C
:100E0000201C311C2722002300F0F4FE3B4B032260
:100E10005B6900925343019211220292042214331F
:100E20000392201C311C322200F0E4FE344B1B786C
:100E3000012B40D10525212202930C23009201951C
:100E40000393201C311C00221B2300F0D3FE0A2335
:100E50002C4F019500933B78201C9B080233029392
:100E600016230393311C24221B2300F0C3FE00250C
:100E7000244A13789D420CDA281C0321FFF78AFBD1
:100E8000AF100A1C1732201C391C00F083FE0135FC
:100E9000EEE71D4B1B78002B0DD019230093052383
:100EA00001930123029316221A230393201C311C61
:100EB000131C00F09FFE0025144B15491A683F23B0
:100EC000AA181A40134B9200D058134BC0180F2386
:100ED0005843FFF709FB021C18321F2A03D8201CB5
:100EE000291C00F057FE0135402DE5D1201C00F0F3
:100EF0004DFE78E7DC010020581C000034FDFF1F88
:100F0000C8FCFF1FCAFCFF1FC9FCFF1FC4FCFF1F5A
:100F100048580000DC0200200080FFFF10B5884226
:100F20001BD0002A19D00B1C03439C0705D1032AB0
:100F300003D908C9043A08C0F3E7DC0707D4012A3B
:100F400005D90B88023A038002310230E9E70B78B9
:100F5000013A037001310130E3E710BD38B50B4DA4
:100F60000024002D10D02B191968002906D02B1948
:100F700058689A68FFF7D2FF0C34F4E75A68002AE1
:100F8000F5D19B68002BF2D138BDC046D41D0000BE
:100F9000704770470A4B181C002805D0854681B061
:100FA0000020C043009001B0FFF7F2FF00F084F989
:100FB000FFF7D4FFFFF7EDFFFFF75AFAFEE7C04651
:100FC000000C002010B5094B1B78002B0CD0084AF0
:100FD000084C0949002313700B702068012200F0AF
:100FE000EBF8206800F0D0F810BDC046CDFCFF1F24
:100FF000CBFCFF1FE0030020CCFCFF1F70B5094CA9
:10100000061C25780820EDB2002D0AD1012323709B
:10101000FFF7D8FF281C002E03D02378012BFCD02B
:10102000002070BDCDFCFF1F054B1A780923002A54
:1010300004D0044B1B881B0103800023181C70473D
:10104000CBFCFF1FDC03002070B5104D061C2A7876
:101050000820002A19D10E4C042320682B7000F0C0
:10106000D3F8206800F0DEF8002E01D100200CE05B
:10107000206800F0C9F80028FAD0206800F0EAF8EB
:101080000028F3D000232B701B2070BDCDFCFF1F68
:10109000E003002010B50C4C0C4B22781868042A91
:1010A00006D100F0D7F800232370FFF727FB09E0F3
:1010B000074900F097F8074B01221A70FFF7FEFA74
:1010C0000023237010BDC046CDFCFF1FE0030020AD
:1010D000DC030020CBFCFF1F08B5054B0020187077
:1010E000044B187000F00AF8034B186008BDC046A6
:1010F000CBFCFF1FCDFCFF1FE0030020194B1A4A59
:1011000030B50021586013601848194A1970997059
:101110008558802424052C438450164AC32080001F
:10112000155880242D022D0A24062C4314501468CF
:1011300080200002204310600F4A1048146B2040AA
:1011400010630F4A17209060D0680F24A043012439
:101150002043D0601162402151620A4A181C13607A
:1011600030BDC046D4FCFF1FD0FCFF1F0070044000
:101170003C10000000E100E000900440FFF8FFFE9A
:1011800000B0034008FDFF1F0A4B8022196A10B50A
:101190001140082200290AD15A6A4824A2435A62FF
:1011A0001A6A4024A2431A6242781A600A1C101C70
:1011B00010BDC04600B0034030B59623012A0CD1C3
:1011C000074B1C6A0823250607D402700A7882237D
:1011D000002A02D140234370131C181C30BDC046A6
:1011E00000B0034010B5002302789A4208D91C1DB4
:1011F000044AA400A4585A0001335452DBB2F3E766
:10120000002010BD00B0034038B5041CFFF712FDEC
:10121000A5780023A3706B1E9D41FFF723FDE8B264
:1012200038BD00000A4B80211A6A10B50A40082018
:10123000002A0BD1186A4024A04318625F2018606E
:10124000586AC024A04301435962101C10BDC04617
:1012500000B003400C4B4022596A10B50A401B20D5
:10126000002A10D1D96C986C4018596C4018196C30
:101270004018D96B9C6B4018001980214008090266
:101280000143D962101C10BD00B0034008B5054BE6
:1012900001221B689A705868FFF7FCFE024B1B691D
:1012A00008BDC046D0FCFF1F00B0034008B5FFF7E3
:1012B000FFF908BDFFBE70471F4B204A204910B5FB
:1012C000D150204B88220021520199501E48C02243
:1012D00092021A501D4A80219C588900214399503E
:1012E0001B4A082194780C4202D0947821439170D3
:1012F000802252021A50174A1749985801408020FC
:10130000400401439950154B06221A705978402227
:101310000A405A70D9781F220A40A0210A43DA7085
:101320000F4A802111709A79D106FCD599790C2247
:101330001142FBD110BDC046080D000000E000E0E6
:10134000000000000070044044100000381000004D
:1013500000D0074004100000FFFFFFFC00400640E3
:101360000050064010B5224B1F215A7900248A43B1
:101370005A711A7907218A431A711E4B73211A7800
:101380008A4350210A431A705A7863218A434021C4
:101390000A435A709A7819218A439A70164BC722C9
:1013A0001C70164B9200995889B29950144A1549ED
:1013B000D06A014002200143D162134A13495068A8
:1013C0000140C020800001435160C1229200985822
:1013D0000F4901409950FFF77FFE201C00F07AFA78
:1013E00000F044F800F0FEF900F006FA62B610BD15
:1013F00000F0074000D0074000E0074000E100E0B7
:1014000000A00440FDFFFFFE00900440FFF8FFFE37
:10141000FFFF00FFF8B5114C071C25780E1C131CAC
:101420000820002D18D10E4A0521116001222270DA
:101430000C4A391C1068321C00F0C2F8002806D192
:101440002378002B00D0FEE7074B187803E02570C7
:10145000892800D10220C0B2F8BDC046E4FCFF1FBD
:10146000E0FCFF1FE8FCFF1FDDFCFF1F08B50020AC
:1014700000F078F8044B00221860044B1A70044BFB
:1014800001221A7008BDC046E8FCFF1FE4FCFF1FE4
:10149000DEFCFF1F70B5114C011C26780820002EC1
:1014A0001AD10F4B02251D60012323700D4B890AB1
:1014B000802218688902D20000F0AAF8002806D11C
:1014C0002378002B00D0FEE7074B187803E0267046
:1014D000892800D1281CC0B270BDC046E4FCFF1FA3
:1014E000E0FCFF1FE8FCFF1FDDFCFF1F08B5FFF756
:1014F00091FF08BD084A08B500231370074A116818
:10150000074A1370052905D1064B1B78012B01D121
:10151000FFF7F5F808BDC046DDFCFF1FE0FCFF1F2C
:10152000E4FCFF1FDEFCFF1F1FB50A4A00231370F7
:10153000094A69461360094B186800F03FF969468B
:101540008A78074BD10601D5162200E003221A70D3
:1015500005B000BDE4FCFF1FE0FCFF1FE8FCFF1F1F
:10156000DDFCFF1F0F4B022210B55A700022DA700B
:101570001A70DA600C4AC12113600C4A8900545871
:1015800058610B48204050501168202001431160E1
:101590000849094A0124885820438850074A181CE2
:1015A000D36010BDF0FCFF1FECFCFF1F00E100E06A
:1015B000FF00FFFF007004403C10000008FDFF1F0B
:1015C00070B54578041C0820022D1BD80E4D5E1EF8
:1015D0008920AE4216D880252D02ED1AAA4211D8D4
:1015E00002202070042060700620A070A3600020FC
:1015F000064B2261E160606059783F220A408021F9
:101600000A435A7070BDC046FF7F000000000240D0
:1016100030B54478031C0820022C22D8114C551EEA
:101620008920A5421DD880242402A41AA14218D8DA
:101630000C1C1443A405A40D13D19A60802203202E
:10164000D20018705A6004200922587019619A70EB
:10165000DC60054B3F225978201C0A4080210A4358
:101660005A7030BDFF7F000000000240F0B54F4BC4
:10167000012291B0524203921B68002204925878D2
:10168000C11E022900D98FE01978012900D18BE011
:10169000474C7021042802D12170DA701BE02078B9
:1016A0000140D8780143D97008D05A705869FFF7C3
:1016B0003BFF62787F231340637075E098680028D1
:1016C00009D102225A7061787F220A4062705869FB
:1016D000FFF710FF68E059781A78042902D1052134
:1016E000597009E01D69596868181861022A03D108
:1016F000DE687118D96009E0D2B2022A06D0032A46
:1017000034D19F6858683A1A9A602FE01969032209
:101710000A400420801A9D68C0B20091854200D220
:10172000E8B20021CEB286420AD2DF6803AE7F5C07
:10173000B618775404AEB618FF2777540131F1E795
:101740000099039E8F1A3968049FC9433740394274
:1017500004D0DA7804210A43DA7025E05860281AA8
:101760009860144871400391016000E0002299786C
:10177000E1711D69A91AC9B221711E69B11A090A5C
:10178000C9B261711B690C499A1A120CD2B2A271CA
:1017900005AC2822201C00F0F9F8FFF74BFA0123D2
:1017A0001C43A047FFF75EFA11B0F0BDECFCFF1F31
:1017B0000000024008000240CE19000038B5051CA8
:1017C0000C1CFFF737FA2B782370AB786370EB783B
:1017D000A3702B696360EB686D68A360E560FFF739
:1017E00041FA38BD024B034A59690A405A617047B1
:1017F00000F00F40FFEFFFFF024B034A59690A4018
:101800005A61704740F00F40FFF7FFFF08B5FEF741
:1018100050FF08BD70B51A4C6368002B2AD1194AD5
:1018200001211171184990600A60184818498025F3
:1018300046586D04354345501649C4200B604B6033
:10184000CB604B61144B80008B6080235B00136086
:10185000124B134D1E5835408026360235431D501D
:101860001D68802080022843186048230B60626056
:10187000131C03E01A79986001321A71181C70BDAC
:1018800008FDFF1F1CFDFF1F18FDFF1F0070044017
:101890003C100000008003405E09000000E100E011
:1018A000FF00FFFF094B80211A68094B10B518682B
:1018B0000840441EA04114680002044205D0186884
:1018C00001431960906800F01BF810BD18FDFF1F60
:1018D0000080034038B5084C084DA060012300206B
:1018E0002371AC60FFF796FF2060002801D1A8604B
:1018F00000E0201C38BDC04628FDFF1F08FDFF1F6B
:1019000008B5034B9B689868FFF780FF08BDC04689
:1019100008FDFF1F084B10B5041C002B02D000214E
:1019200000E000BF054B1868836A002B00D0984781
:10193000201C00F03DF8C04600000000F81900002F
:1019400070B50E4B0E4D0024ED1AAD101E1CAC42AE
:1019500004D0A300F35898470134F8E700F04EF89C
:10196000084B094D0024ED1AAD101E1CAC4204D0EA
:10197000A300F35898470134F8E770BD601D0000DC
:10198000601D0000601D0000641D000010B50023F4
:10199000934203D0CC5CC4540133F9E710BD031C5F
:1019A0008218934202D019700133FAE770470000A1
:1019B000FEE7C046AE001200B0814FA1A6A81FC826
:1019C000D300D580D91FDA12DB408D14AF0007B4E5
:1019D00007498020087008780006FCD505490A6888
:1019E000D2204002104308600A6007BC7047000024
:1019F00002400C3000F043000CFCFF1FF8B5C0465D
:101A0000F8BC08BC9E467047F8B5C046F8BC08BC98
:101A10009E467047054B80225200DA601A615A6177
:101A2000034B38215A690A435A61704700A00440A9
:101A300040F00F4082B000230193019B834203D208
:101A4000C046019B0133F7E702B0704710B5074C61
:101A5000201CFFF7EFFF201CFFF7ECFF201CFFF717
:101A6000E9FF201CFFF7E6FF10BDC046102700006D
:101A7000F8B5071C0826144C08222368012093435C
:101A80002360FFF7D7FFFA091023002A02D022684B
:101A9000134302E022689A43131C23602368082240
:101AA000013E7F001343F6B2FFB2074D2360002EC4
:101AB000E1D12B68012093432B60FFF7BBFF2B681C
:101AC000082213432B60F8BD40F00F4008B5094BC6
:101AD000082219681143196018681021084318601A
:101AE0001868884318601968012091431960FFF74E
:101AF000A1FF08BD40F00F4038B5094C0825236808
:101B00000120AB432360FFF795FF226810239A431F
:101B1000226022681343236023681D43256038BD7B
:101B200040F00F4010B5041CFFF7D0FF7820FFF7FE
:101B30009FFF8020FFF79CFF201CFFF799FFFFF716
:101B4000DBFF10BD38B50F4CFFF764FF236820257D
:101B50002B432360FFF77AFF2368AB432360FFF733
:101B600075FF23681D432560FFF770FF0024064BB7
:101B7000E05C0134FFF7D6FF192CF8D1FFF766FFC0
:101B800038BDC04640F00F40B419000008B5FEF75C
:101B900076FF08BDD3175B0F9B18DB109B01C9189C
:101BA000074B40181A4004D50823013A5B421A43F8
:101BB0000132012393401A1C03781A4302707047C4
:101BC00007000080D3175B0F9B18DB109B0159188F
:101BD0000B5C07490A4004D50821013A49420A43EF
:101BE00001320120904018404042C00F7047C0466B
:101BF00007000080F7B50B9C061C0F1C0092019398
:101C00000B9A0998A31A834225DA1F2C21D80A9D22
:101C10000A9A0898AB1A83421BDA3F2D17D800980E
:101C20000A9A019B811A0B9849191A1A1219381C21
:101C3000FFF7C8FF002805D0301C291C221CFFF725
:101C4000A9FF04E0301C291C221CFEF741FF0135CE
:101C5000DEE70134D4E7F7BD030303FFFFFF03030F
:101C6000030000FBFBFB0000FFFFFF060303FFFE7A
:101C7000FE00001F3F3FF0F0F03F3F1F0000005FFD
:101C80005050405F515F405F495F405F515E405F31
:101C90005551405F424100007EFFFFC3DBDBDBFBB1
:101CA0007B0000FCFEFF333333FFFEFC0000FFFF30
:101CB000FF060303FFFFFF060303FFFFFE00007E96
:101CC000FFFFDBDBDBC3C3C30000000000808080BC
:101CD0008080808080808080C4BE403AEA6E622A24
:101CE000FE4EC83EEE6ABA3EEA38C2023E3EEA7E88
:101CF0004E2AFE9C621CC0B24826C040C000C08074
:101D00004000C000C0000000000000A000FF80BE36
:101D10008A8E80BC888480FFFF283800FF150C0065
:101D2000FF8AFF00FF8CCF00F9170900F8A88F0584
:101D3000BCA8EF00B8A8EF00500007048FA8FF7000
:101D4000F8F8DDF8752000000000F5AAF5FF80AE78
:101D5000AABA80BEA8A080FF18E7FF7F010000009C
:101D6000390400001104000028230000282300008B
:101D70002823000000000000000000000000000018
:101D80000000000000000000000000000000000053
:101D900000000000F6190000000000000000000034
:101DA0000000000000000000000000000000000033
:101DB0000000000000000000000000000000000023
:101DC0000000000000000000000000000000000013
:101DD00000000000681D000000FCFF1F6C000000F8
:0C1DE000000000000000000000000000F7
:10240000000C0020B9440000BD460000C146000099
:10241000C5460000C9460000CD460000D146000078
:10242000D5460000D9460000DD460000E146000028
:10243000E5460000E9460000ED4600005D4D000065
:10244000F1460000F5460000F9460000FD46000098
:102450000147000005470000094700000D47000044
:102460001147000015470000194700001D470000F4
:102470002147000025470000294700002D470000A4
:102480003147000035470000C94C000039470000C3
:102490003D47000041470000454700004947000014
:1024A0004D470000514700005547000059470000C4
:1024B0005D47000061470000654700006947000074
:1024C00010B5064C2378002B07D1054B002B02D00A
:1024D000044800E000BF0123237010BD88020020E3
:1024E00000000000D44F000008B5084B002B03D0BB
:1024F0000748084900E000BF07480368002B03D0E5
:10250000064B002B00D0984708BDC04600000000D5
:10251000D44F00008C020020880200200000000040
:1025200003B47146490840004900095A49008E44E5
:1025300003BC7047002941D010B4041C4C40A44691
:1025400001230022002900D54942002800D540423D
:1025500088422CD301242407A14204D2814202D212
:1025600009011B01F8E7E400A14204D2814202D232
:1025700049005B00F8E7884201D3401A1A434C082F
:10258000A04202D3001B5C0822438C08A04202D365
:10259000001B9C082243CC08A04202D3001BDC088D
:1025A0002243002803D01B0901D00909E3E7101CCE
:1025B0006446002C00D5404210BC7047002806D06D
:1025C00003DB0020C043400801E08020000607B480
:1025D000024802A14018029003BDC0461900000045
:1025E0000029EBD003B5FFF7A7FF0EBC4243891AC1
:1025F0001847C0467047C0468446081C6146FFE73E
:102600001FB500F0E3F9002801D40021C8421FBD26
:1026100010B500F069F94042013010BD10B500F06E
:10262000D5F9002801DB002010BD012010BDC046F7
:1026300010B500F0CBF9002801DD002010BD01200D
:1026400010BDC04610B500F079F9002801DC00206B
:1026500010BD012010BDC04610B500F06FF9002874
:1026600001DA002010BD012010BDC0469E2110B52A
:10267000C905041CFFF7F0FF002803D1201C00F05F
:1026800091FC10BD9E21C905201C00F015FB00F037
:1026900089FC80231B06C018F3E7C046F0B55F46EF
:1026A00056464D464446F0B446024500C00F85B03C
:1026B0000F1C760A2D0E804641D0FF2D26D0802497
:1026C000240400212643F6007F3D89468B46F90FFE
:1026D0007C027800640A000E00918A463CD0FF28F4
:1026E00034D080231B041C430023E4007F38019373
:1026F000009F4346019A7B4049469C4611430F295F
:1027000000D971E0764F89007F58BF46002E3ED138
:102710000822022391469B46D9E75A46341CC246FA
:1027200001920199022937D0032900D1CFE0012974
:1027300000D0ABE053460B400022002632E0002ED2
:1027400019D10421012289469346C0E7221C531E59
:102750009A4102320192CBE701270197002CC7D0A2
:10276000201C00F0EBFC431F9C4076235B420021C1
:10277000181A0191BCE7301C00F0E0FC7625431FDD
:102780009E406D4200232D1A99469B469FE70C23DD
:10279000032199468B469AE7D446012367463B407E
:1027A000FF2200267602D205700ADB071043184389
:1027B00005B03CBC90469946A246AB46F0BD80268B
:1027C0000023F603FF22EDE700220026EAE780203F
:1027D000C00306423BD0044239D1061C2643760290
:1027E000760A009BFF22DDE7281A03907601640138
:1027F000A64239D3361B1A2201230120311C5B006B
:102800007600002901DBB44201D8361B0343013AAC
:10281000002AF3DC741EA641341C1C43039A7F3249
:10282000002A27DD630704D00F232340042B00D0A8
:102830000434270103D52B4B039A1C408032FE2A17
:102840000BDD012361460B40FF220026AAE7064369
:102850007602760A4346FF22A4E7A40101236746D5
:10286000660AD2B23B409DE7039F1B22013F0397BC
:102870000023C2E77E23039F5B42DB1B1B2B07DD8C
:10288000012361460B40002200268BE7D446C5E7B2
:10289000221CDA40039B9E339C40231C5C1EA341F8
:1028A00013435A0704D00F221A40042A00D00433DD
:1028B0005F0105D5012361460B400122002671E727
:1028C0009E01624601231340760A00226AE78026B1
:1028D000F60326437602760A5346FF2262E7C04695
:1028E000544E0000FFFFFFF74A02430270B55C0A36
:1028F000550A43004A001B0EC60F120EC90FFF2BCC
:1029000005D0FF2A08D0012093420BD070BD0120D2
:10291000002CFBD1FF2AF6D10120002DF6D1012099
:102920009342F3D1AC42F1D18E4205D0002BEDD1D0
:10293000201C441EA041E9E70020E7E74A024302C9
:10294000F0B55C0A550A43004A001B0EC60F120E72
:10295000C90FFF2B31D0FF2A34D0002B16D1604293
:1029600060418446002A14D0002820D18E4217D11D
:10297000934215DC04DBAC4212D80020AC4212D2E8
:10298000704270414042012318430CE0002AEDD10F
:1029900094466F426F416046002805D1002FE5D074
:1029A000704201231843F0BD0020002FFBD14842A4
:1029B0004841404201231843F5E7002CCBD00220C8
:1029C0004042F0E7002DC8D0F9E7C0464A02430272
:1029D000F0B55C0A550A43004A001B0EC60F120EE2
:1029E000C90FFF2B27D0FF2A29D0002B10D0002A97
:1029F00015D194466F426F416046002815D00020E3
:102A0000002F04D148424841404201231843F0BD01
:102A1000604260418446002AECD00028F2D18E4208
:102A200011D0704201231843F1E7002FF7D0704214
:102A300001231843EBE70220002CE8D1D3E7022062
:102A4000002DE4D1D1E79342EBDC04DBAC42E8D8C3
:102A50000020AC42DBD27042704140420123184357
:102A6000D5E7C046F0B55F4656464D464446F0B4FD
:102A70004402460083B00F1C640A360EC50F002EB8
:102A800041D0FF2E22D080231B0400201C43E400F1
:102A90007F3E82468046391C4B007F02C90F7F0A69
:102AA0001B0E8B463BD0FF2B34D0802212041743E1
:102AB000FF007F3B00215A466A40019252460A437A
:102AC0000F2A63D87A48920082589746002C3FD14B
:102AD0000822022392469846DDE7019540460228E7
:102AE0002AD1019A01251540FF2300246402DB0549
:102AF000600AED071843284303B03CBC9046994652
:102B0000A246AB46F0BD002C27D10420012282460C
:102B10009046C0E7391C4A1E91410231CBE70121A2
:102B2000002FC8D0381C00F009FB431F9F407623BC
:102B30005B421B1A0021BEE7032800D1AEE001284A
:102B40004FD1019842461040C5B200230024CDE782
:102B50000C2303209A4680469DE7201C00F0EEFAE5
:102B60007626431F9C4076420023361A9A469846A2
:102B700091E780240025E403FF23B7E75B463C1C74
:102B800001938846AAE73C1C8846A7E7250C240445
:102B90003A0C240C3F04F6183F0C211C231C7943EB
:102BA00053436F435543FB180A0C9B18B1469F4291
:102BB00002D980225202AD1809041A04090C5218D5
:102BC00094011B0C611E8C41920EED181443AD0153
:102BD0002C43230105D501226308012014408144C0
:102BE0001C434B467F33002B2DDD600704D00F22A2
:102BF0002240042A00D00434220103D52D4B1C406E
:102C00004B468033FE2B17DD019B01251D40002420
:102C1000FF236BE78020C003044208D0074206D19F
:102C2000041C3C436402640A5D46FF235EE70443E0
:102C30006402640AFF2359E70198A4010125640A8C
:102C4000DBB2054052E77E235B424A469B1A1B2BB0
:102C500005DD019B01251D400024002346E7221CC1
:102C6000DA404B469E339C40231C5C1EA341134319
:102C7000580704D00F221A40042A00D004335A0106
:102C800005D5019B01251D40002401232EE7019855
:102C90009C010125640A0540002327E78027FF03E4
:102CA000019B3C43640201251D40640AFF231DE78C
:102CB000944E0000FFFFFFF7F8B5C20F4302440037
:102CC0004D024800240E161C9B09000EC90FAD09C9
:102CD000FF2800D183E0012779408A425CD0221A84
:102CE000002A00DC8EE000281ED1002D00D07AE002
:102CF000580704D00F221A40042A00D00433802140
:102D0000C90401221940324000293AD00134FF2C75
:102D100000D183E09B015B0A5B02E4B2E405580A40
:102D2000D20720431043F8BDFF2CE1D08021C90415
:102D30000D431B2A00DD31E1291C2020D140821ADD
:102D400095406A1E95410D435B1B5801D0D59B01F0
:102D50009F09381C00F0F2F9421F974094425FDC53
:102D6000141B1F231B1B3A1C9F40611C3B1CCA40A9
:102D70005F1EBB4113430024BAE7131EB8D10023E2
:102D80000022DB08FF2C04D1002B47D08020C00399
:102D900003435B025B0ABFE7211A002944DD0028D8
:102DA00027D0FF2CA4D08020C00405431B2900DDC0
:102DB000F2E0281C2027C840791A8D40691E8D41F9
:102DC00005435B19590100D492E70134FF2C59D017
:102DD000734901221A400B405B08134388E7002D1A
:102DE00000D07AE777E7013A002AADD0FF2CA0D1D6
:102DF0007EE7002D00D17BE701390029E1D0FF2CCF
:102E0000D4D175E7002A1BD1621CD2B2012A4BDD56
:102E10005F1B7A0123D5EF1A0E1C9AE700237BE78C
:102E20005F4BA41A3B4063E7002946D1611CC8B23E
:102E3000012829DDFF2924D0EB185B080C1C57E77B
:102E4000002C13D0FF2818D08024E40452422343DE
:102E50001B2A4DDD0123EB1A041C0E1C75E7002F05
:102E600000D076E70023002200248AE7002B3BD025
:102E7000D243002AEFD0FF28EAD12B1CFF240E1CDE
:102E800036E7FF2400237CE7002C5CD1002B00D127
:102E900080E0002D00D12BE75B19580100D427E713
:102EA0003F4A0124134023E7002C15D1002B40D1C9
:102EB000002D63D02B1C0E1C1AE7002C21D1002BF7
:102EC00054D0C943002904D0FF284CD01B2958DD19
:102ED00001235B19041C75E7002B19D1002D48D084
:102EE0002B1C0E1CFF2403E72B1C041C0E1CFFE6EE
:102EF0001C1C2026D440B21A93405A1E93412343EF
:102F0000A9E7FF282FD08024E40449422343DDE7CA
:102F1000FF24002D00D1EBE68022DB08D203134210
:102F200004D0ED08154201D12B1C0E1CDB00FF2440
:102F3000DEE6002D00D1DBE65A1B500100D41CE771
:102F4000EB1A0E1CD4E6002B0DD0FF24002D00D16F
:102F5000CEE68022DB08D2031342E7D0ED0815420B
:102F6000E4D12B1CE2E72B1CFF24C1E62B1C041C24
:102F7000BEE6802300229B04FF2402E7231C0022DC
:102F8000FFE61C1C2027CC40791A8B40591E8B4130
:102F900023439EE72B1CABE6012512E70125D3E670
:102FA000FFFFFFFB4302590A4300C20F1B0E002024
:102FB0007E2B0DDD9D2B0CDC802000040143952B26
:102FC0000ADC9620C31AD9404842002A00D1081CC6
:102FD0007047034BD018FBE7963B9940F4E7C04697
:102FE000FFFFFF7F70B5041E3CD0C60F00D04442E7
:102FF000201C00F0A3F89E23251C1B1A962B0CDC2A
:10300000083884406402640ADBB2321C6402DB05C7
:10301000600AD2071843104370BD992B0ADD0522C0
:10302000121A211CD1400A1C011C1B318D40691E43
:103030008D411543052801DD421F9540164C2C405B
:103040006A0704D00F221540042D00D0043461011A
:103050000CD59F23181AFF281AD0A401640AC3B202
:10306000321CD3E7002200230024CFE7E408FF2B23
:1030700004D06402640ADBB2321CC7E7002C04D01F
:103080008020C00304436402640A321CFF23BDE7AE
:10309000321CFF230024B9E7FFFFFFFB10B5041E1D
:1030A00033D000F04BF89E231B1A962B09DC08380E
:1030B00084406402640ADBB26402DB05600A1843E0
:1030C00010BD992B0ADD0522121A211CD1400A1CC1
:1030D000011C1B318C40611E8C411443052801DD0D
:1030E000421F9440144A2240610704D00F210C4033
:1030F000042C00D0043251010AD59F23181AFF284E
:1031000016D09401640AC3B2D6E700230024D3E7A3
:10311000D208FF2B03D05402640ADBB2CCE7002AAA
:1031200006D08024E40314436402640AFF23C3E747
:10313000FF230024C0E7C046FFFFFFFB1C21012343
:103140001B04984201D3000C10391B0A984201D38A
:10315000000A08391B09984201D30009043902A268
:10316000105C40187047C0460403020201010101CF
:10317000000000000000000038B5051C0024AC422F
:1031800006DA00F0A3FE012001F04CFE0134F6E760
:1031900038BD08B5012000F0A1F808BD0B4B002296
:1031A0001A600B49002351180B60043280218900FA
:1031B0008A42F6D1074A1360074A1360074A136030
:1031C000074A1360074A13607047C046C4020020D4
:1031D000B4040020C8020020AC020020B402002089
:1031E000B8020020A8020020034A1368591C11608D
:1031F000024AD0547047C046C4020020C0060020D6
:1032000038B5FF24051C2040FFF7EEFF280A2040B8
:10321000FFF7EAFF280C2040FFF7E6FF0020FFF74A
:10322000E3FF38BDF8B50C4C051CEDB220680F1C4F
:10323000161CFFF7E5FF281CFFF7D6FF2368803D2B
:10324000F8182060FFF7DCFFE8B2FFF7CDFF236836
:10325000F6182660F8BDC046A802002010B5FFF79A
:103260009DFF4624201C042103220234FFF7DAFFCD
:10327000502CF7D1201C04210322023CFFF7D2FF7F
:10328000462CF7D110BD10B5FFF788FF4624201C4F
:10329000002106220134FFF7C5FF502CF7D110BDE5
:1032A00010B5FFF77BFF4124201C06210A22013CB8
:1032B000FFF7B8FF392CF7D110BD10B5FFF76EFF3F
:1032C000082462005242101C211C51301332013C70
:1032D000FFF7A8FF002CF4D110BD70476F4BF0B57D
:1032E0001A6885B001321A606D4B1A6810181860A0
:1032F0006B496C4B0A681B689A4200DACCE0D31A1F
:103300000B60694B186801301860684B1C68002C12
:1033100000DC86E000231A1C654D990069580029DD
:1033200003DD644995006B5001320133802BF3D1EA
:103330000321FFF755F9604D002905D12868211CAC
:103340000130FFF74DF929602868211CFFF748F983
:10335000584B8900CA58594B594C5200D15A594BB5
:10336000206A196001F080FB206A574901F0A6FB32
:10337000206A01F063FB4C4C544923680E68B34249
:10338000B6DB534D2F680297002F00DC81E0514BD4
:103390001868514B1A68571C1F60865C0396961C70
:1033A0001E60C75D00960197FF273E1C019F7E436C
:1033B000B446039E371C6744D61C0397009F1E60CB
:1033C000C65D3704039EF719561D0F6082181E60F4
:1033D00012794248029F0270BE4204DB002028603E
:1033E00018602060086050B22F49304B00281DDC67
:1033F000002A13D07F2002402D4892001458002C40
:103400000CDD002414501A68013A1A600A68344925
:103410000A6034490968521A33490A601B68002B54
:10342000A9D1274B186A01F015FBA4E720489200A8
:103430001658002E07D1012414501A680968121971
:103440001A60284A11601B68002B94DD1C4CE0694F
:1034500001F08EF8254B264A264901280CD15869DF
:1034600002408020800002435A619A691140802204
:103470005200114399617BE7586901408020400068
:103480000143596199690A40802189000A439A6180
:103490006EE701330B606EE705B0F0BDA4020020BB
:1034A000C002002000FCFF1FB4020020C802002060
:1034B000B40400208C040020B0020020D44E000090
:1034C00008040020BC02002088130000B80200207D
:1034D000C402002004FCFF1FAC020020880400206E
:1034E000B8060020BC060020B4060020009004406E
:1034F000FFF8FFFEFFFAFFFEF8B5071C0826144C84
:103500000822236801209343236001F07FFDFA091C
:103510001023002A02D02268134302E022689A4353
:10352000131C236023680822013E7F001343F6B278
:10353000FFB2074D2360002EE1D12B680120934399
:103540002B6001F063FD2B68082213432B60F8BD4C
:1035500040F00F4008B5094B082219681143196063
:1035600018681021084318601868884318601968A3
:1035700001209143196001F049FD08BD40F00F4062
:1035800038B5094C082523680120AB43236001F0BE
:103590003DFD226810239A43226022681343236072
:1035A00023681D43256038BD40F00F4010B5041C52
:1035B000FFF7D0FF7820FFF79FFF8020FFF79CFFE9
:1035C000201CFFF799FFFFF7DBFF10BD08B5502364
:1035D0005B4220301843C0B2FFF7E8FF08BD10B5CA
:1035E000041C2034E4B2230910201843FFF7DEFF47
:1035F0000F202040FFF7DAFF10BD70B5061C002435
:10360000201CFFF7E3FF0020FFF7E9FFFFF7A2FF11
:103610007820FFF771FF4020FFF76EFF0025705DF7
:103620000135FFF769FF402DF9D10134E4B2FFF70E
:10363000A7FF4036042CE3D170BD000070B5334CB9
:1036400001F0D4FC2368324D20263343281C23602C
:1036500001F0DCFC2368281CB343236001F0D6FC96
:103660002368281C1E43266001F0D0FCAE20FFF723
:103670009DFF0020FFF79AFF1220FFF797FF002021
:10368000FFF794FFB020FFF791FF8120FFF78EFF37
:103690004F20FFF78BFFA120FFF788FFA620FFF741
:1036A00085FFA820FFF782FF1F20FFF77FFFC820BC
:1036B000FFF77CFFD320FFF779FF0020FFF776FFAD
:1036C000D520FFF773FF8020FFF770FFD920FFF7A9
:1036D0006DFF1F20FFF76AFFDA20FFF767FF122058
:1036E000FFF764FFDB20FFF761FF4020FFF75EFF7D
:1036F0008D20FFF75BFF1420FFF758FFAF20FFF787
:1037000055FF281C01F082FC70BDC04640F00F4000
:103710001027000008B5FFF770FF08BD0023002246
:10372000C2548022013352009342F8D17047000006
:10373000D3175B0F9B18DB109B01C918074B401870
:103740001A4004D50823013A5B421A43013201238F
:1037500093401A1C03781A430270704707000080D8
:1037600008B53F2903D81F2A01D8FFF7E1FF08BD9C
:10377000D3175B0F9B18DB109B01C918074B401830
:103780001A4004D50823013A5B421A43013201234F
:1037900093401A1C0378934303707047070000801E
:1037A000D3175B0F9B18DB109B0159180B5C074963
:1037B0000A4004D50821013A49420A430132012056
:1037C000904018404042C00F7047C046070000803C
:1037D000F0B585B002920C9A071C019103930D9EDF
:1037E0003F2A31DC1F2E2FDC0A9BDA422CD40B9AA5
:1037F000D64229D4341C0B9AA31B934224DA1F2CE3
:1038000020D80C9D0C9AAB1A0A9A93421ADA3F2DD3
:1038100016D8029B0C9A0198991A039B49199A1B76
:103820001219FFF7BDFF002805D0381C291C221CE7
:10383000FFF77EFF04E0381C291C221CFFF798FFCD
:103840000135DFE70134D6E705B0F0BD30B5164BE2
:10385000164A1D7800211160141C0122A84221DCA7
:10386000814205DA9D5C0131ED0002355219F7E71E
:10387000995C2160941C9A1850780D4A002800D059
:10388000012010701B1900228A420BDA094C9000AB
:1038900023501878032802D1002058719871013202
:1038A0000833F1E730BDC0460CFFFF1FCC020020FB
:1038B000C20300203809002038B5002000F080FE47
:1038C000051C002000F0A4FE0024A04202D06C1EC3
:1038D000A541ECB2002000F0C1FE431E98414042D9
:1038E0000440002000F0E2FE431E984140420440A4
:1038F000201C38BD7FB52025254C201CFFF70EFF6E
:103900004023244E00932023019300230293311C73
:103910001A1C0395201CFFF75BFF201CFFF7FAFE23
:10392000013D1420FFF728FC002DE5D10825201CBF
:10393000FFF7F4FE201CFFF7EDFE6420FFF71CFCF0
:10394000301CFFF7E7FE013D6420FFF715FC002D5A
:10395000EDD16420FFF710FC301CFFF7DBFEFFF712
:10396000ABFF0028F8D1FFF7A7FF0128FBD02025E7
:10397000201CFFF7D3FE201CFFF7CCFE013D1420D6
:10398000FFF7FAFB002DF3D1C820FFF7F5FB7FBD51
:10399000380800200CFEFF1F10B50C1C00218C42C3
:1039A00006D06100FEF71CFEA14201DD611A61181C
:1039B000081C10BDF0B585B01F1C0FAB02921B7820
:1039C0000A9A061C01910B9D0393541A3F2C4EDC5E
:1039D0000C99CC424BD41F2D49D801990A9A8B1AC5
:1039E0000C991B198B4242DA0199621802990968F5
:1039F0008A4212D13A68023A954202D10D990122C7
:103A00000A703A680132954202D10E9901220A7079
:103A10003A68954201D1AA1E3A603F2C25D80399F5
:103A2000301C00290CD0134A134004D50222013B5C
:103A3000524213430133019A301C9B18D90704D416
:103A4000211C2A1CFFF774FE03E0211C2A1CFFF72F
:103A50008FFE1F2D09D06A1C301C211CE30702D5E4
:103A6000FFF766FE01E0FFF783FE0134B5E705B01E
:103A7000F0BDC0460100008030B50324151C221C97
:103A800085B04A43052101910393009402950349AF
:103A90000023FFF79DFE05B030BDC04608FCFF1FA8
:103AA000044B05481A685043044A801818604000C7
:103AB000400C704708FEFF1FFD430300C39E260015
:103AC00010B5C388041C01339BB2142B00D900230A
:103AD0006278E380A388702A05D00132D2B2627086
:103AE00052B2D31800E0033BA3800022A2566388A1
:103AF000D3186380FFF7D4FF1E21FEF771FD081C69
:103B00000A21FEF717FD002804D0012805D163889B
:103B1000013301E06388013B638010BDF7B508AC59
:103B20002478009364B2019400250C4EEF00F41940
:103B3000E388002B0DD1009B0125C900D200E58050
:103B40006180A280BB557023002800D0019B637068
:103B500002E001351E2DE8D1F7BDC046D00200209D
:103B6000F0B599B00B93D14B08901B780791151CB9
:103B70001F9F209C012B39D0079900230720052681
:103B800002934B4239220090039308980A23C849B4
:103B90000196FFF71DFE281C0321FEF721FD0722D9
:103BA0004A43281C311C0E92FEF7C4FC0A21FEF782
:103BB00017FDC04B0922521A2B4004D50220013BAD
:103BC0004042034301330720434319331193EB175A
:103BD0009B0F5D19AD100D950A91042900DD0A9225
:103BE0000A9E05235E43109600261BE0079EB148FF
:103BF000064004D50223013E5B421E430136311CC0
:103C0000AD481F220236FFF793FD3F2EF7DDB3E7E5
:103C1000099EAA4BB6009D590C962878042808D90D
:103C2000099E0136A64B09961B68099E9E42EFDB52
:103C300038E1FEF775FC1301F300DF0005007200A8
:103C4000AB796A791B021343EAD1072300930193EE
:103C5000AB786A781B0213431B04079E1B14033BBB
:103C60009B1B02932B79EA781B0213431B041B1442
:103C7000033B0393089893490E9A1023FFF7A8FD7E
:103C80008E4B0C9E38689B599A78597812020A43D9
:103C900012041214121A02D0D2B2032AC0D8DA784F
:103CA0001B7921681B0213431B041B145B1A03338B
:103CB000002B02D0DBB2042BB2D8FFF7CFFA219E43
:103CC00001223378013333700C9E7C4B9B590D26B7
:103CD0005A7100229A712168386801310C9106905E
:103CE000FFF7DEFE051CFFF7DBFE0F210F90281CFF
:103CF000FEF776FC0F98CD1F0F21FEF771FC4942AD
:103D000049B26DB20091012006990C9A2B1C013E1C
:103D1000FFF704FF002EDED182E76B4B13AA944617
:103D200043CB43C206930F9241CB41C205210922E6
:103D300000910192A9786A780A9B090260461143B2
:103D40009A0012580904079809140B1A9B1A029337
:103D50002B79EA781B0213431B045A4E1B14093BB0
:103D600003930898311C109A1723FFF731FD0C9923
:103D7000524D07224D192B680092052201929A7824
:103D8000597812020A43120407981214033A121ABD
:103D90000292DA781B79311C1B0213431B041B149B
:103DA000013B0393119A1B230898FFF711FD2B6821
:103DB0009A78597812020A43120439681214521A76
:103DC00003D0D2B2032A00D92AE7DA781B791B0282
:103DD00013431B0422681B149B1A0533002B03D0CA
:103DE000DBB2052B00D91BE7219E0120337801337C
:103DF000337058E0E9790D98FFF7CEFDAB786A781B
:103E00001B0213431B041B1400932B79EA781B023B
:103E100013431B041B14181A019012E0E9790D9842
:103E2000FFF7BAFDAB786A781B0213431B041B141F
:103E3000181800902B79EA781B0213431B041B14FB
:103E40000193AB796A790B9E1B0213431B04039603
:103E50001E9E1B140293049600231BE0AB786A7825
:103E60001B0213431B041B1400932B79EA781B02DB
:103E700013431B041B140193AB796A790B9E1B023D
:103E8000134303961B041E9E1B1402930496EB79A6
:103E90005A1E93410593089807993A1C231CFFF773
:103EA00089FDBDE6002019B0F0BDC046C203002068
:103EB00008FDFF1F0100008038080020380900209D
:103EC000CC02002008FCFF1F404E000013B5002369
:103ED0006C46E380074B0634586A211C00F04CFE08
:103EE000054A23881188002B03D0591A002900DDC8
:103EF000138013BD08040020C00300207FB52024D8
:103F0000154D281CFFF70AFCFFF7E0FF4023134E76
:103F100000932023019300230293311C1A1C281CB8
:103F20000394FFF755FC013CFFF7D0FF281CFFF777
:103F3000F1FBFFF7CBFF002CE2D1FFF7C7FF301CEE
:103F4000FFF7E8FBFFF7B8FC0028F6D1FFF7B4FC59
:103F50000128FBD07FBDC0463808002008FDFF1FA8
:103F6000094982B00A786B460132D2B2EFF3108071
:103F700072B6D8710A700733012A02D11A78034B3E
:103F80001A7002B07047C04600040020B00900203B
:103F9000054A1378013BDBB21370002B03D1034BAE
:103FA000187880F31088704700040020B0090020C2
:103FB000F0B5012191B0002204910892B84B089A03
:103FC0001B78934200D822E20898FFF73FFC0323B6
:103FD000B44E0E930A230F936D4636236F4600248A
:103FE0006B4435353737301C1C702C703C70FFF734
:103FF00095FB0EAB01930FAB0293211C221C009585
:104000000397301C063BFFF7ABFD2024FFF75EFF54
:10401000A54E301CFFF782FB049901290DD14023E6
:104020000093221C2023203A019300230392029341
:10403000301C9E491A1CFFF7CBFB40230093202322
:104040000193002302930394301C96491A1CFFF736
:10405000BFFB023C301CFFF75DFB002CD6D12C705F
:1040600004940B9406940A94099407940127261C3F
:10407000FFF72CFF6B463633049A002018700A9B1A
:1040800001320492834205D000F082FC0A99013982
:104090000A9102E00A9800F073FC099A002A06D0FF
:1040A000002000F0BFFD099B013B099302E0099845
:1040B00000F0B2FD7C48FFF731FB002000F0A8FAC9
:1040C000041E27D1FFF7ECFC6421FEF789FA1329BF
:1040D00017DC6B4635331B78012B12D10E990F9DDF
:1040E0000591FFF7DDFC0A21FEF77AFA08224B4220
:1040F0005242013500925BB2201C05992A1CFFF741
:104100000DFD0E9AFF2301325B009A4201DC0E92F4
:1041100000E00E93002000F0A1FA041E23D1FFF767
:10412000BFFC6421FEF75CFA132916DC6B463533BD
:104130001B78012B11D10E9A0F9D0592FFF7B0FC51
:104140000A21FEF74DFA0822524201354BB2009285
:10415000201C05992A1CFFF7E1FC0E9B013B022B5A
:1041600000DC03230E936B46002235331A700E9B3E
:104170009A1B282A01DD1E1C283E9A1B092A01DCF5
:104180001E1C0A3E002E05DBE0235B009E4202DD82
:104190001E1C00E000266B46353300930EAB0193E6
:1041A0000FAB0293053B03933F48013B311C049A3C
:1041B000FFF7D6FC01230593984207D1089B012104
:1041C0000133DBB2002208930B9105920F9B1E2B4B
:1041D00007D1374B1B78012B0AD16A463532137051
:1041E00006E01F3B05995A1E93415B421940059119
:1041F0006B4636331B78012B04D1002F02DA0422E0
:1042000009921F1C6B4635331B78012B52D1012FAD
:1042100006D1FFF762F80023042106930A911F1CC0
:10422000002000F0CDF9002805D1069A002A08D018
:104230000123069341E0002000F038FA0028F4D072
:104240003BE06B4636331B78002B36D1FFF71BF86B
:1042500006240F9A0E99013206920791FFF720FC6F
:10426000051CFFF71DFC0B21071C281CFEF7B8F9E5
:10427000381C4D1F0921FEF7B3F9494249B26DB20E
:10428000009101200799069A2B1C013CFFF746FC80
:10429000002CDED101230C2106935F42079116E02A
:1042A0000CFFFF1F380700203808002008FDFF1F03
:1042B000C2030020002F00D10127079A002A06D050
:1042C000002F04DA013A0792002A00D101270F9B40
:1042D000504CFA180E9B201C991B0F92FFF728FADE
:1042E0000E9A201C911B0F9A013AFFF721FA4A4DB2
:1042F000AC1DF6352388002B0CD0231F1988A31E74
:104300001A88C9084348891BD208FFF729FAA01F59
:10431000FFF7D6FB0834AC42ECD10E993D4C8B1B19
:104320003E4D201C08991F2B0BDC00233C22FFF77D
:10433000A3FB132300930423019327230293002359
:1043400009E000231522FFF797FB132300930423B2
:104350000193002302931F22201C291C0393062390
:10436000FFF736FA2B4C201CFFF7D4F90A20FEF792
:1043700003FF059A012A00D17AE60E9B201C991BA7
:104380000F9AFFF7F5F90E9A201C911B0F9A013A2C
:10439000FFF7EEF90B9B002B02D1FEF781FF01E046
:1043A000FEF78BFF0025FFF791FD1D4F381CFFF72F
:1043B000B5F9FFF78BFD20230B99402201930023D1
:1043C000009202936A10012900D06A42381C211C15
:1043D00003921A1CFFF7FCF9FFF778FD104F0E9AB5
:1043E000381C911B0F9AFFF7A3F90E9B0F9A991B8C
:1043F000013A381CFFF79CF90135381CFFF78AF9A0
:10440000FFF764FD202DCED100210491D6E50020D8
:1044100011B0F0BD38080020D002002008FCFF1FBA
:104420003807002008B500F005FAFFF707F9FFF795
:1044300065FDFFF7BDFD0128FBD0FFF75BFAF6E74E
:1044400010B588421BD0002A19D00B1C03439C07CF
:1044500005D1032A03D908C9043A08C0F3E7DC07E9
:1044600007D4012A05D90B88023A038002310230B1
:10447000E9E70B78013A037001310130E3E710BD41
:1044800038B50B4D0024002D10D02B1919680029C8
:1044900006D02B1958689A68FFF7D2FF0C34F4E75E
:1044A0005A68002AF5D19B68002BF2D138BDC0466E
:1044B000C45600007047704708B5FFF7FBFF00F0D7
:1044C00055F9174B181C002805D0854681B00020EF
:1044D000C043009001B0134A134B9B1A002B08D124
:1044E000FFF7CEFFFFF7E7FF10490020FFF79AFF25
:1044F00015E00321114004D1032B02D902C2043B71
:10450000ECE70121114005D1012B03D91180023BB9
:104510000232E3E700211170013B0132DEE7FEE7E2
:10452000000C002088020020B4090020C4030020F1
:10453000094B0A4A18600A49506901405161094A09
:104540000949506B01408020400001435163074AF4
:10455000181CD3617047C046EC03002040F00F40A8
:10456000FFDFFFFF00A00440FFF8FFFE080400206B
:10457000024B18698004C00F7047C04640F00FF826
:10458000094B0A4A18600A49506901405161094AB9
:104590000949D06A0140802040000143D162074AA6
:1045A000181CD3607047C046F003002040F00F4055
:1045B000FFF7FFFF00A00440FFF8FFFE0804002003
:1045C000024B18690005C00F7047C04640F00FF855
:1045D000094B0A4A18600A49506901405161094A69
:1045E0000949106A01408020400001431162074AD6
:1045F000181C13617047C046F403002000F00F4000
:10460000FFFEFFFF00900440FFF8FFFE08040020BB
:10461000024B1869C005C00F7047C04600F00FF884
:10462000094A0A4B51691860802081435161084A48
:104630000849D0690140802040000143D161064A09
:10464000181C53617047C04640F00F40F80300202B
:1046500000A00440FFF8FFFE08040020024B186988
:104660000006C00F7047C04640F00FF8094B0A4AD9
:1046700018600A49506901405161094A0949906A24
:1046800001408020400001439162074A181C936159
:104690007047C046FC03002040F00F40FFFBFFFFC7
:1046A00000A00440FFF8FFFE08040020024B186938
:1046B0004005C00F7047C04640F00FF8FFBE70477E
:1046C000FFBE7047FFBE7047FFBE7047FFBE70471A
:1046D000FFBE7047FFBE7047FFBE7047FFBE70470A
:1046E000FFBE7047FFBE7047FFBE7047FFBE7047FA
:1046F000FFBE7047FFBE7047FFBE7047FFBE7047EA
:10470000FFBE7047FFBE7047FFBE7047FFBE7047D9
:10471000FFBE7047FFBE7047FFBE7047FFBE7047C9
:10472000FFBE7047FFBE7047FFBE7047FFBE7047B9
:10473000FFBE7047FFBE7047FFBE7047FFBE7047A9
:10474000FFBE7047FFBE7047FFBE7047FFBE704799
:10475000FFBE7047FFBE7047FFBE7047FFBE704789
:10476000FFBE7047FFBE7047FFBE7047244B254A0F
:10477000254910B5D150254B88220021520199506E
:104780002348C02292021A50224AC0219C58C900D4
:1047900021439950204A082194780C4202D0947801
:1047A00021439170802252021A501C4A1C49985889
:1047B000014080204004014399501A4B1A4AD9689D
:1047C0001140D96019690A401A61184B06221A7003
:1047D000597840220A4004210A435A70D9781F228E
:1047E0000A40A0210A43DA70114A802111709A7997
:1047F000D106FCD599790C221142FBD110BDC046DF
:10480000080D000000E000E00024000000700440FB
:10481000441000003810000000D0074004100000D1
:10482000FFFFFFFC00900440FFF8FFFE0040064041
:104830000050064038B5384B1F215A7900248A436E
:104840005A711A7907218A431A71344B73211A78E5
:104850008A4350210A431A705A7863218A434021BF
:104860000A435A709A7819218A439A702C4B2D4921
:104870001C702D4B0222D86908401043D861986AF9
:10488000084010439862D86A08401043D862586BB9
:104890000840104358632548C7239340C558ADB21C
:1048A000C550234B1D6A0D4015431D621D6B2940E9
:1048B0000A431A6359681F4A0A40C02189000A4303
:1048C0005A60C1239B00C1581B4A0A40C250201C99
:1048D00000F082F9201C00F031F8201CFFF750FE98
:1048E00000F028F9201CFFF773FE201CFFF798FE4C
:1048F000201CFFF7BBFE201CFFF71AFE00F002F998
:10490000201C00F05DF8201C00F01EF9201C00F0B7
:1049100037FA62B638BDC04600F0074000D0074005
:1049200000E00740FDFFFFFE00A0044000E100E0C2
:1049300000900440FFF8FFFEFFFF00FF0B4B0C4A06
:104940008021106058698900084358611868014344
:104950001960084B0849586A014080204000014313
:104960005962064B101C5A607047C04600F00F4059
:104970000404002000900440FFF8FFFE080400201B
:10498000024B802292009A607047C04600F00FF8F8
:10499000024B802292005A607047C04600F00FF828
:1049A00042888188531C594380231B02C918034B3A
:1049B000090C018099619A607047C04600800340ED
:1049C000144A1549154B70B5CC58D060802040046E
:1049D0002043C850124B002119605960D9605961B9
:1049E00010492C20996058610F48104C98616669F5
:1049F0000F4D35408026B6003543656151800D4C22
:104A0000082191600E211080948019600A4B101CBF
:104A10001A6270BD38040020007004403C10000091
:104A200000800340471D0000EE020000009004409B
:104A3000FFF8FFFE9D19000008040020044B982198
:104A40001A688A43816800200A431A607047C0468A
:104A500000800340034B98211A6800208A431A60A3
:104A6000586070470080034038B5041C081C0D389E
:104A70000F4A80B28623904218D8081CFEF7B2FA7B
:104A8000011C0C48FDF70AFE0B49051CFDF7DAFD79
:104A9000002803D001235B42638003E0281CFDF75C
:104AA000E5FD6080201CFFF77BFF0023181C38BD4C
:104AB000781300000000374900FF7F4770B5041CE1
:104AC000081CFEF78FFA0E49FDF7CCFF051C608825
:104AD000FEF7E4FA011C281CFDF7E0FD8F21C90553
:104AE000061CFDF7B9FD051C8620002D07D1301CE2
:104AF000FDF7BCFDA080201CFFF752FF281C70BDF5
:104B0000B0E33F47084B094A59680A405A60996820
:104B1000802252010A439A605969054A0A4081215C
:104B200049010A435A61704700F00F40FFEFFFFF51
:104B30009FEEFFFF024B034A59690A405A617047D2
:104B400040F00F407FD3FFFF38B5094C094D20617D
:104B500001230020A060207323716C6200F0CCF868
:104B60002060002801D1686200E0201C38BDC046EA
:104B7000480400200804002070B5041C0E1CFFF738
:104B8000EFF9A568247BFFF703FA0420002C12D16B
:104B9000281CFEF783FA0849FDF764FF0749051C46
:104BA000FDF750FD041C0520002C04D1281CFDF746
:104BB0005DFD3080201C70BD0A00A04000FF7F47D3
:104BC000044B5B6A9A6801329A60002A01D1012283
:104BD0001A737047080400200A4B0B4A80211060AA
:104BE000586908435861186801431960074B084920
:104BF000D8690140802040000143D961054B101C59
:104C00001A60704700F00F405C04002000900440E0
:104C1000FFF8FFFE08040020014B80229A607047D5
:104C200000F00FF8014B80225A60704700F00FF837
:104C300008B5FEF7AEFA08BD70B51A4CA36A002B92
:104C40002AD1194A01211171184990600A60184847
:104C5000184980254658AD04354345501649C420AF
:104C60000B604B60CB604B61144B80008B608023EA
:104C70005B001360124B134D1E58354080263604DE
:104C800035431D501D688020C0022843186048230A
:104C90000B60A262131C03E01A79986001321A714A
:104CA000181C70BD0804002064040020600400206B
:104CB000007004403C1000000090034063BB000003
:104CC00000E100E0FFFF00FF094B80211A68094B5B
:104CD00010B518680840441EA04114680002044240
:104CE00005D0186801431960906800F05FF810BDA6
:104CF000600400200090034070B5124CA368002BA4
:104D000019D1114A01211170104950600A601048F0
:104D1000104980250B6048608B600F48D2231B012F
:104D2000C6582D063602360A3543C55007230B6098
:104D3000A260131C03E01A78586001321A70181C24
:104D400070BDC046080400207404002070040020D8
:104D5000F5A8030010E000E000E000E008B5054B16
:104D600005491A68054B1868014019605068FFF73B
:104D700027FF08BD70040020FFFFFEFF10E000E0E9
:104D800038B5084C084DA060012300202371EC6267
:104D9000FFF752FF2060002801D1E86200E0201CEC
:104DA00038BDC0467C0400200804002008B5034B31
:104DB000DB6A9868FFF73CFF08BDC0460804002086
:104DC000C046C046C04670470020C046C046C046E8
:104DD000C046C04601300928F7D9C046704710B513
:104DE000041C642C04D9643CFFF7EEFFA4B2F8E77E
:104DF0000A2C04D90A3CFFF7E3FFA4B2F8E710BD80
:104E000010B5041C0548844204D9FFF7E8FF044BA1
:104E1000E418F7E7A0B2FFF7E2FF10BD60EA000078
:104E2000A015FFFF10B5041C002C05D00348013C61
:104E3000FFF7E6FFA4B2F7E710BDC04664BB000071
:104E40000400000003000000020000000100000058
:104E500000000000E82700009A270000C827000093
:104E600022270000C8270000BE270000C827000036
:104E7000222700009A2700009A270000BE27000082
:104E8000222700001A2700001A2700001A27000016
:104E9000CE2700008C2B0000862B0000862B000004
:104EA0007C2B0000DC2A0000DC2A0000722B0000B2
:104EB0007C2B0000DC2A0000722B0000DC2A0000A2
:104EC0007C2B0000DA2A0000DA2A0000DA2A00002F
:104ED000142C000008000800090009000A000A005C
:104EE0000B000C000C000D000E000F001000110054
:104EF00012001300140015001700180019001B0001
:104F00001D001E00200022002400260029002B0086
:104F10002E003000330037003A003D0041004500CC
:104F200049004D00520057005C00610067006E00B0
:104F300074007B0082008A0092009B00A400AE00F7
:104F4000B800C300CF00DC00E900F6000501150140
:104F50002501370149015D01710187019F01B801F8
:104F6000D201ED010B022A024B026E029302BA0239
:104F7000E3020F033E037003A403DB03160454048F
:104F80009604DC0426057405C7051F067D06E006A9
:104F90004807B7072D08A9082D09B9094D0AE90ADC
:104FA0008F0B3F0CFA0CC00D910E6F0F5A1052115F
:104FB0005A1272139A14D3151F177F18F419801BF5
:104FC000221DDE1EB420A522B524E4263429A72BF9
:104FD0003F2EFF30F8B5C046F8BC08BC9E4670476F
:104FE000F8B5C046F8BC08BC9E467047054B802209
:104FF0005200DA601A615A61034B38215A690A4338
:105000005A61704700A0044040F00F4082B0002376
:105010000193019B834203D2C046019B0133F7E712
:1050200002B0704708B50248FFF7F0FF08BDC04660
:1050300010270000E9240000C12400000400000043
:10504000C0060020DF11DF00DF40DD15D711D51FBE
:10505000C704DF97D51DDFD5DD01C19F5F155FD781
:10506000551F00C0000000C0C0C000C000C000C08C
:10507000C0C000C0000000000000000000000000F0
:10508000000000007A2978003B4133403A01580083
:105090003A4033403B007B5A5A007A595B00580330
:1050A00000000003020200030202000102010003EB
:1050B00002020003020200000000000000000000E5
:1050C000000000007C55557ED5557C28DD21560911
:1050D000F5285421DD2A7509D400000000000000E5
:1050E00000000000000000000000000000000000C0
:1050F00000000000000000000000000000000000B0
:105100000000000008142241FF001C63FF000000A3
:10511000FF000000FF631C00FF41221408E0A060B4
:10512000B860A0E0E060A078A060E00000000000AF
:10513000000000000000000000000000000000006F
:10514000000000000000DC14DC40DC00DC40DC146B
:10515000DC00DC00DC40DC00DC14DC40DC14DC4087
:10516000DC00DC14DC00DC40DC14DC0055AA0008A8
:10517000F80800F820F800E800B8A8E80000E80007
:10518000B8A8E8000000FD04F5959594650515F4B0
:1051900015041514F5151504F5C405C5F50405C564
:1051A00035C40504F534C505F504FD0055AA007C99
:1051B000087C007C447C00047C04102800547C386B
:1051C0007C6C38100000DF10D754D414D350D4179F
:1051D000D410D010D750D010D710D350D710D651EC
:1051E000D111D610D710D156D710DF0055AA003EE6
:1051F0000A36003E223E003E22003E0836003E2A8D
:1052000000023E0200001D141D011D001D011D14A1
:105210001D001D001D011D001D141D011D141D017B
:105220001D001D141D001D011D141D0055AA001791
:10523000151D001F11001D001F15001F021F001F5C
:1052400011001F1515CD5B070000000000000000D5
:10525000000000000000000000000000000000004E
:10526000000000000000000000000000000000003E
:10527000000000000000000000000000000000002E
:10528000000000000000000000000000000000001E
:105290000000609090902000F0909090600010F0DE
:1052A0001000F09090901000F0909090100010F08E
:1052B0001000F030C000F000E0101090A000F000EE
:1052C00000000000000000000000000000000000DE
:1052D00000000204040403000700000000000407AB
:1052E00004000700000000000700000000000407A1
:1052F000040007000106070003040404070005007A
:10530000000000000000000000000000000000009D
:10531000000000000000000000000000000000008D
:10532000000000000000000000000000000000007D
:10533000000000000000000000000000000000006D
:105340000000000000000000081400000F001B0017
:105350000500000000001C0011000005B0001E0048
:105360000000010038001500050000004F000F008C
:105370000500000012001A000500000015001900C9
:105380001F00000031001A000300000031001B0064
:105390000300000031001C001300000041001B004E
:1053A0000300000041001A00030002004100190040
:1053B00021000000670019001500000477001500A7
:1053C000050000033A001100050000000800160067
:1053D000050000030A0012000500000062001C0026
:1053E000050000005C001E001100010D01000A0014
:1053F0001A000500000014001A00050001055D00F8
:105400000E00F6FF01006D00150005000004AA0063
:105410000600050000030C00160005000000A100B6
:105420000A00050000009B000D000500000095002B
:10543000110005000005BF00180005000000250050
:105440001B00050000036F001100050000008A002A
:105450001A0016000107010014001A0005000105DA
:1054600064001E00000001009F0011000500000400
:10547000A6001B000500000345001B0005000003FB
:105480007D001B000500000364001B000500000AEE
:105490000000950008000E00010564001E000000D9
:1054A00001009E00080005000004A00004000500A3
:1054B000000000001F002100000028001C001F0049
:1054C00000004E001900150003006A0014000E00D1
:1054D00000007D0010000A0000008C000C00050098
:1054E000000B0000130017000C00010564001E00F3
:1054F000000001009E00110005000004A0000D0046
:10550000050000020000200018001C021A001E0006
:1055100016001A0231001E000F0017004000120092
:105520002400000352000F00050000016400130076
:1055300012001D0291001B000D00100A0000250042
:105540001A000500010564001E0000000100420071
:105550001500050000043C000A00050000000000E2
:105560001E003C0000002C00170005000000250074
:105570001100050000002D000D0005000000460090
:105580001000050000003D001A000500000C00009E
:105590000A001A000500000016001A0005000105A7
:1055A00064001E00000001009E00110005000001C3
:1055B0006E0019002A0018000500170014000003EF
:1055C0000E00120005000304760008000500000329
:1055D000A2000E0005000001660011002B00320041
:1055E0001B001C001500FF0038001C003600001ACC
:1055F0000000000016000800000008001900080064
:105600000005B0001E000000010010001C00080092
:10561000000018001F002800000046001F001800AE
:105620000002400021000600110046001000120098
:1056300000009D001E000E000202AB001E000B00C9
:105640000C01B40010000F001600D5001700170061
:1056500001034E000D0000000003E30014000000F1
:10566000000063001F001000000073001A000D000E
:1056700000017F001A0011000F005D0010000500FE
:105680000102630010000500070068000900130014
:10569000010171000A0016002503A00007000000A8
:1056A0000004E300080005000000EC0013000900FE
:1056B0000001C6000B000A001E02E6001F001000D9
:1056C000150000003C50000000FCFF1F8806000091
:0C56D000000000000000000000000000CE
:10000000000C0020950F0000AD120000B51200009A
:10001000B5120000B5120000B5120000B5120000C4
:10002000B5120000B5120000B5120000B5120000B4
:10003000B5120000B5120000B5120000B5120000A4
:10004000B5120000B5120000B5120000B512000094
:10005000B51200006D160000B5120000B5120000C8
:10006000B5120000B5120000B5120000B512000074
:10007000B5120000B5120000B51200008D1200008C
:10008000B5120000A5180000B5120000B51200005E
:10009000B5120000B5120000B5120000B512000044
:1000A000B5120000B5120000B5120000B512000034
:1000B000B5120000B5120000B5120000B512000024
:00000001FF
